{
  "contractName": "Credential",
  "abi": [
    {
      "inputs": [],
      "stateMutability": "nonpayable",
      "type": "constructor"
    },
    {
      "anonymous": false,
      "inputs": [
        {
          "indexed": true,
          "internalType": "string",
          "name": "key",
          "type": "string"
        },
        {
          "indexed": false,
          "internalType": "string",
          "name": "cipherData",
          "type": "string"
        },
        {
          "indexed": false,
          "internalType": "string[]",
          "name": "pubKeys",
          "type": "string[]"
        },
        {
          "indexed": false,
          "internalType": "string[]",
          "name": "cipherKeys",
          "type": "string[]"
        }
      ],
      "name": "SaveCredential",
      "type": "event"
    },
    {
      "inputs": [],
      "name": "adminCount",
      "outputs": [
        {
          "internalType": "uint256",
          "name": "",
          "type": "uint256"
        }
      ],
      "stateMutability": "view",
      "type": "function"
    },
    {
      "inputs": [
        {
          "internalType": "address",
          "name": "",
          "type": "address"
        }
      ],
      "name": "admins",
      "outputs": [
        {
          "internalType": "bool",
          "name": "",
          "type": "bool"
        }
      ],
      "stateMutability": "view",
      "type": "function"
    },
    {
      "inputs": [
        {
          "internalType": "string",
          "name": "",
          "type": "string"
        }
      ],
      "name": "credentials",
      "outputs": [
        {
          "internalType": "string",
          "name": "cipherData",
          "type": "string"
        }
      ],
      "stateMutability": "view",
      "type": "function"
    },
    {
      "inputs": [
        {
          "internalType": "address",
          "name": "admin",
          "type": "address"
        },
        {
          "internalType": "bool",
          "name": "isActive",
          "type": "bool"
        }
      ],
      "name": "setAdmin",
      "outputs": [],
      "stateMutability": "nonpayable",
      "type": "function"
    },
    {
      "inputs": [
        {
          "internalType": "string",
          "name": "key",
          "type": "string"
        },
        {
          "internalType": "string",
          "name": "cipherData",
          "type": "string"
        },
        {
          "internalType": "string[]",
          "name": "pubKeys",
          "type": "string[]"
        },
        {
          "internalType": "string[]",
          "name": "cipherKeys",
          "type": "string[]"
        }
      ],
      "name": "saveCredential",
      "outputs": [],
      "stateMutability": "nonpayable",
      "type": "function"
    },
    {
      "inputs": [
        {
          "internalType": "string",
          "name": "key",
          "type": "string"
        },
        {
          "internalType": "string",
          "name": "pubKey",
          "type": "string"
        }
      ],
      "name": "getCredential",
      "outputs": [
        {
          "internalType": "string",
          "name": "",
          "type": "string"
        },
        {
          "internalType": "string",
          "name": "",
          "type": "string"
        }
      ],
      "stateMutability": "view",
      "type": "function"
    },
    {
      "inputs": [
        {
          "internalType": "string",
          "name": "key",
          "type": "string"
        },
        {
          "internalType": "string[]",
          "name": "pubKeys",
          "type": "string[]"
        },
        {
          "internalType": "string[]",
          "name": "cipherKeys",
          "type": "string[]"
        }
      ],
      "name": "appendAuthorize",
      "outputs": [],
      "stateMutability": "nonpayable",
      "type": "function"
    }
  ],
  "bytecode": "0x608060405234801561001057600080fd5b5060016000803373ffffffffffffffffffffffffffffffffffffffff1673ffffffffffffffffffffffffffffffffffffffff16815260200190815260200160002060006101000a81548160ff0219169083151502179055506001808190555061142f8061007e6000396000f3fe608060405234801561001057600080fd5b506004361061007d5760003560e01c8063429b62e51161005b578063429b62e5146100ed5780634b0bddd21461011d578063bf4af9b114610139578063e06f7b2b146101695761007d565b80631fd69e58146100825780632b7832b31461009e57806333d46c87146100bc575b600080fd5b61009c60048036038101906100979190610cfb565b610185565b005b6100a6610373565b6040516100b39190611200565b60405180910390f35b6100d660048036038101906100d19190610c8f565b610379565b6040516100e492919061111d565b60405180910390f35b61010760048036038101906101029190610b52565b61051d565b6040516101149190611094565b60405180910390f35b61013760048036038101906101329190610b7b565b61053d565b005b610153600480360381019061014e9190610bb7565b6106eb565b60405161016091906110af565b60405180910390f35b610183600480360381019061017e9190610bf8565b6107b7565b005b6000803373ffffffffffffffffffffffffffffffffffffffff1673ffffffffffffffffffffffffffffffffffffffff16815260200190815260200160002060009054906101000a900460ff16610210576040517f08c379a0000000000000000000000000000000000000000000000000000000008152600401610207906111a0565b60405180910390fd5b8051825114610254576040517f08c379a000000000000000000000000000000000000000000000000000000000815260040161024b906111c0565b60405180910390fd5b82600285604051610265919061107d565b9081526020016040518091039020600001908051906020019061028992919061098e565b5060005b825181101561031b578181815181106102a257fe5b60200260200101516002866040516102ba919061107d565b90815260200160405180910390206001018483815181106102d757fe5b60200260200101516040516102ec919061107d565b9081526020016040518091039020908051906020019061030d92919061098e565b50808060010191505061028d565b508360405161032a919061107d565b60405180910390207f267ccad392ec916b4b1c2af0da0f4f6ab0ee52f2566dc42c4dcbd030b2a87726848484604051610365939291906110d1565b60405180910390a250505050565b60015481565b60608060028460405161038c919061107d565b90815260200160405180910390206000016002856040516103ad919061107d565b9081526020016040518091039020600101846040516103cc919061107d565b9081526020016040518091039020818054600181600116156101000203166002900480601f01602080910402602001604051908101604052809291908181526020018280546001816001161561010002031660029004801561046f5780601f106104445761010080835404028352916020019161046f565b820191906000526020600020905b81548152906001019060200180831161045257829003601f168201915b50505050509150808054600181600116156101000203166002900480601f01602080910402602001604051908101604052809291908181526020018280546001816001161561010002031660029004801561050b5780601f106104e05761010080835404028352916020019161050b565b820191906000526020600020905b8154815290600101906020018083116104ee57829003601f168201915b50505050509050915091509250929050565b60006020528060005260406000206000915054906101000a900460ff1681565b6000803373ffffffffffffffffffffffffffffffffffffffff1673ffffffffffffffffffffffffffffffffffffffff16815260200190815260200160002060009054906101000a900460ff166105c8576040517f08c379a00000000000000000000000000000000000000000000000000000000081526004016105bf906111a0565b60405180910390fd5b8015156000808473ffffffffffffffffffffffffffffffffffffffff1673ffffffffffffffffffffffffffffffffffffffff16815260200190815260200160002060009054906101000a900460ff1615151461064b578015610639576001806000828254019250508190555061064a565b600180600082825403925050819055505b5b60006001541415610691576040517f08c379a0000000000000000000000000000000000000000000000000000000008152600401610688906111e0565b60405180910390fd5b806000808473ffffffffffffffffffffffffffffffffffffffff1673ffffffffffffffffffffffffffffffffffffffff16815260200190815260200160002060006101000a81548160ff0219169083151502179055505050565b600281805160208101820180518482526020830160208501208183528095505050505050600091509050806000018054600181600116156101000203166002900480601f0160208091040260200160405190810160405280929190818152602001828054600181600116156101000203166002900480156107ad5780601f10610782576101008083540402835291602001916107ad565b820191906000526020600020905b81548152906001019060200180831161079057829003601f168201915b5050505050905081565b6000803373ffffffffffffffffffffffffffffffffffffffff1673ffffffffffffffffffffffffffffffffffffffff16815260200190815260200160002060009054906101000a900460ff16610842576040517f08c379a0000000000000000000000000000000000000000000000000000000008152600401610839906111a0565b60405180910390fd5b8051825114610886576040517f08c379a000000000000000000000000000000000000000000000000000000000815260040161087d906111c0565b60405180910390fd5b60005b82518110156109175781818151811061089e57fe5b60200260200101516002856040516108b6919061107d565b90815260200160405180910390206001018483815181106108d357fe5b60200260200101516040516108e8919061107d565b9081526020016040518091039020908051906020019061090992919061098e565b508080600101915050610889565b5082604051610926919061107d565b60405180910390207f267ccad392ec916b4b1c2af0da0f4f6ab0ee52f2566dc42c4dcbd030b2a8772660028560405161095f919061107d565b9081526020016040518091039020600001848460405161098193929190611154565b60405180910390a2505050565b828054600181600116156101000203166002900490600052602060002090601f0160209004810192826109c45760008555610a0b565b82601f106109dd57805160ff1916838001178555610a0b565b82800160010185558215610a0b579182015b82811115610a0a5782518255916020019190600101906109ef565b5b509050610a189190610a1c565b5090565b5b80821115610a35576000816000905550600101610a1d565b5090565b6000610a4c610a478461124c565b61121b565b9050808382526020820190508260005b85811015610a8c5781358501610a728882610b28565b845260208401935060208301925050600181019050610a5c565b5050509392505050565b6000610aa9610aa484611278565b61121b565b905082815260208101848484011115610ac157600080fd5b610acc848285611376565b509392505050565b600081359050610ae3816113cb565b92915050565b600082601f830112610afa57600080fd5b8135610b0a848260208601610a39565b91505092915050565b600081359050610b22816113e2565b92915050565b600082601f830112610b3957600080fd5b8135610b49848260208601610a96565b91505092915050565b600060208284031215610b6457600080fd5b6000610b7284828501610ad4565b91505092915050565b60008060408385031215610b8e57600080fd5b6000610b9c85828601610ad4565b9250506020610bad85828601610b13565b9150509250929050565b600060208284031215610bc957600080fd5b600082013567ffffffffffffffff811115610be357600080fd5b610bef84828501610b28565b91505092915050565b600080600060608486031215610c0d57600080fd5b600084013567ffffffffffffffff811115610c2757600080fd5b610c3386828701610b28565b935050602084013567ffffffffffffffff811115610c5057600080fd5b610c5c86828701610ae9565b925050604084013567ffffffffffffffff811115610c7957600080fd5b610c8586828701610ae9565b9150509250925092565b60008060408385031215610ca257600080fd5b600083013567ffffffffffffffff811115610cbc57600080fd5b610cc885828601610b28565b925050602083013567ffffffffffffffff811115610ce557600080fd5b610cf185828601610b28565b9150509250929050565b60008060008060808587031215610d1157600080fd5b600085013567ffffffffffffffff811115610d2b57600080fd5b610d3787828801610b28565b945050602085013567ffffffffffffffff811115610d5457600080fd5b610d6087828801610b28565b935050604085013567ffffffffffffffff811115610d7d57600080fd5b610d8987828801610ae9565b925050606085013567ffffffffffffffff811115610da657600080fd5b610db287828801610ae9565b91505092959194509250565b6000610dca8383610e56565b905092915050565b6000610ddd826112cd565b610de781856112f0565b935083602082028501610df9856112a8565b8060005b85811015610e355784840389528151610e168582610dbe565b9450610e21836112e3565b925060208a01995050600181019050610dfd565b50829750879550505050505092915050565b610e5081611340565b82525050565b6000610e61826112d8565b610e6b8185611301565b9350610e7b818560208601611385565b610e84816113ba565b840191505092915050565b6000610e9a826112d8565b610ea48185611312565b9350610eb4818560208601611385565b610ebd816113ba565b840191505092915050565b6000610ed3826112d8565b610edd8185611323565b9350610eed818560208601611385565b80840191505092915050565b600081546001811660008114610f165760018114610f3c57610f80565b607f6002830416610f278187611312565b955060ff198316865260208601935050610f80565b60028204610f4a8187611312565b9550610f55856112b8565b60005b82811015610f7757815481890152600182019150602081019050610f58565b80880195505050505b505092915050565b6000610f95600983611312565b91507f4e6f742041646d696e00000000000000000000000000000000000000000000006000830152602082019050919050565b6000610fd5602e83611312565b91507f7075624b65797320616e64206369706865724b657973206d757374206265207460008301527f68652073616d65206c656e6774680000000000000000000000000000000000006020830152604082019050919050565b600061103b601e83611312565b91507f506c65617365206b656570206174206c65617374206f6e652061646d696e00006000830152602082019050919050565b6110778161136c565b82525050565b60006110898284610ec8565b915081905092915050565b60006020820190506110a96000830184610e47565b92915050565b600060208201905081810360008301526110c98184610e8f565b905092915050565b600060608201905081810360008301526110eb8186610e8f565b905081810360208301526110ff8185610dd2565b905081810360408301526111138184610dd2565b9050949350505050565b600060408201905081810360008301526111378185610e8f565b9050818103602083015261114b8184610e8f565b90509392505050565b6000606082019050818103600083015261116e8186610ef9565b905081810360208301526111828185610dd2565b905081810360408301526111968184610dd2565b9050949350505050565b600060208201905081810360008301526111b981610f88565b9050919050565b600060208201905081810360008301526111d981610fc8565b9050919050565b600060208201905081810360008301526111f98161102e565b9050919050565b6000602082019050611215600083018461106e565b92915050565b6000604051905081810181811067ffffffffffffffff82111715611242576112416113b8565b5b8060405250919050565b600067ffffffffffffffff821115611267576112666113b8565b5b602082029050602081019050919050565b600067ffffffffffffffff821115611293576112926113b8565b5b601f19601f8301169050602081019050919050565b6000819050602082019050919050565b60008190508160005260206000209050919050565b600081519050919050565b600081519050919050565b6000602082019050919050565b600082825260208201905092915050565b600082825260208201905092915050565b600082825260208201905092915050565b600081905092915050565b60006113398261134c565b9050919050565b60008115159050919050565b600073ffffffffffffffffffffffffffffffffffffffff82169050919050565b6000819050919050565b82818337600083830152505050565b60005b838110156113a3578082015181840152602081019050611388565b838111156113b2576000848401525b50505050565bfe5b6000601f19601f8301169050919050565b6113d48161132e565b81146113df57600080fd5b50565b6113eb81611340565b81146113f657600080fd5b5056fea2646970667358221220c8eb078716383fd058d0f023877ef7292395e5e8cb86ddc69295944666c8aac664736f6c63430007060033",
  "immutableReferences": {},
  "source": "// SPDX-License-Identifier: UNLICENSED\npragma solidity ^0.7.0;\npragma abicoder v2;\n\ncontract Credential {\n  mapping(address=>bool) public admins;\n  uint public adminCount;\n\n  struct Cert {\n    string cipherData;\n    mapping(string=>string) cipherKeys;\n  }\n\n  mapping(string=>Cert) public credentials;\n\n\n  event SaveCredential(string indexed key, string cipherData, string[] pubKeys, string[] cipherKeys);\n\n  constructor() public {\n    admins[msg.sender] = true;\n    adminCount = 1;\n  }\n\n  modifier onlyAdmin() {\n    require(admins[msg.sender], \"Not Admin\");\n    _;\n  }\n\n  function setAdmin(address admin, bool isActive) public onlyAdmin {\n    if (admins[admin] != isActive) {\n      if (isActive) {\n        adminCount += 1;\n      } else {\n        adminCount -= 1;\n      }\n    }\n    require(adminCount!=0, \"Please keep at least one admin\");\n    admins[admin] = isActive;\n  }\n\n  /// @dev \n  /// @param key \n  /// @param cipherData \n  /// @param pubKeys \n  /// @param cipherKeys pubKeys\n  function saveCredential(\n    string memory key,\n    string memory cipherData,\n    string[] memory pubKeys,\n    string[] memory cipherKeys\n  ) public onlyAdmin {\n    require(pubKeys.length == cipherKeys.length, \"pubKeys and cipherKeys must be the same length\");\n    credentials[key].cipherData = cipherData;\n    for (uint256 index = 0; index < pubKeys.length; index++) {\n      credentials[key].cipherKeys[pubKeys[index]] = cipherKeys[index];\n    }\n    emit SaveCredential(key, cipherData, pubKeys, cipherKeys);\n  }\n\n  function getCredential(string memory key, string memory pubKey) view public returns (string memory, string memory) {\n    return(\n      credentials[key].cipherData,\n      credentials[key].cipherKeys[pubKey]\n    );\n  }\n\n  function appendAuthorize(\n    string memory key,\n    string[] memory pubKeys,\n    string[] memory cipherKeys\n  ) public onlyAdmin {\n    require(pubKeys.length == cipherKeys.length, \"pubKeys and cipherKeys must be the same length\");\n    for (uint256 index = 0; index < pubKeys.length; index++) {\n      credentials[key].cipherKeys[pubKeys[index]] = cipherKeys[index];\n    }\n    emit SaveCredential(key, credentials[key].cipherData, pubKeys, cipherKeys);\n  }\n\n}\n",
  "sourcePath": "/Users/liyi/project/solidity/evidence-contract/contracts/Credential.sol",
  "compiler": {
    "name": "solc",
    "version": "0.7.6+commit.7338295f.Emscripten.clang"
  },
  "schemaVersion": "3.4.6",
  "updatedAt": "2022-04-20T09:28:33.501Z",
  "devdoc": {
    "kind": "dev",
    "methods": {
      "saveCredential(string,string,string[],string[])": {
        "details": "",
        "params": {
          "cipherData": "",
          "cipherKeys": "pubKeys",
          "key": "",
          "pubKeys": ""
        }
      }
    },
    "version": 1
  },
  "userdoc": {
    "kind": "user",
    "methods": {},
    "version": 1
  }
}