{
  "contractName": "RevokedCert",
  "abi": [
    {
      "inputs": [],
      "stateMutability": "nonpayable",
      "type": "constructor"
    },
    {
      "anonymous": false,
      "inputs": [
        {
          "indexed": true,
          "internalType": "string",
          "name": "certNo",
          "type": "string"
        },
        {
          "indexed": false,
          "internalType": "uint256",
          "name": "revokedTime",
          "type": "uint256"
        },
        {
          "indexed": false,
          "internalType": "bytes32",
          "name": "certType",
          "type": "bytes32"
        },
        {
          "indexed": false,
          "internalType": "string",
          "name": "issuer",
          "type": "string"
        }
      ],
      "name": "RevokeCert",
      "type": "event"
    },
    {
      "inputs": [],
      "name": "adminCount",
      "outputs": [
        {
          "internalType": "uint256",
          "name": "",
          "type": "uint256"
        }
      ],
      "stateMutability": "view",
      "type": "function",
      "constant": true
    },
    {
      "inputs": [
        {
          "internalType": "address",
          "name": "",
          "type": "address"
        }
      ],
      "name": "admins",
      "outputs": [
        {
          "internalType": "bool",
          "name": "",
          "type": "bool"
        }
      ],
      "stateMutability": "view",
      "type": "function",
      "constant": true
    },
    {
      "inputs": [
        {
          "internalType": "string",
          "name": "",
          "type": "string"
        }
      ],
      "name": "revokedCerts",
      "outputs": [
        {
          "internalType": "bool",
          "name": "isAcitve",
          "type": "bool"
        },
        {
          "internalType": "uint256",
          "name": "revokedTime",
          "type": "uint256"
        },
        {
          "internalType": "bytes32",
          "name": "certType",
          "type": "bytes32"
        },
        {
          "internalType": "string",
          "name": "issuer",
          "type": "string"
        }
      ],
      "stateMutability": "view",
      "type": "function",
      "constant": true
    },
    {
      "inputs": [
        {
          "internalType": "uint256",
          "name": "revokedTime",
          "type": "uint256"
        },
        {
          "internalType": "bytes32",
          "name": "certType",
          "type": "bytes32"
        },
        {
          "internalType": "string",
          "name": "certNo",
          "type": "string"
        },
        {
          "internalType": "string",
          "name": "issuer",
          "type": "string"
        }
      ],
      "name": "revoke",
      "outputs": [],
      "stateMutability": "nonpayable",
      "type": "function"
    },
    {
      "inputs": [
        {
          "internalType": "string",
          "name": "certNo",
          "type": "string"
        }
      ],
      "name": "getRevokedInfo",
      "outputs": [
        {
          "internalType": "bool",
          "name": "",
          "type": "bool"
        },
        {
          "internalType": "uint256",
          "name": "",
          "type": "uint256"
        },
        {
          "internalType": "bytes32",
          "name": "",
          "type": "bytes32"
        },
        {
          "internalType": "string",
          "name": "",
          "type": "string"
        }
      ],
      "stateMutability": "view",
      "type": "function",
      "constant": true
    }
  ],
  "bytecode": "0x608060405234801561001057600080fd5b5060016000803373ffffffffffffffffffffffffffffffffffffffff1673ffffffffffffffffffffffffffffffffffffffff16815260200190815260200160002060006101000a81548160ff02191690831515021790555060018081905550610cd98061007e6000396000f3fe608060405234801561001057600080fd5b50600436106100575760003560e01c80630bfa0e861461005c5780632b7832b3146101c257806338b6b2f7146101e0578063429b62e51461032b57806374662c4a14610385575b600080fd5b6101c06004803603608081101561007257600080fd5b810190808035906020019092919080359060200190929190803590602001906401000000008111156100a357600080fd5b8201836020820111156100b557600080fd5b803590602001918460018302840111640100000000831117156100d757600080fd5b91908080601f016020809104026020016040519081016040528093929190818152602001838380828437600081840152601f19601f8201169050808301925050505050505091929192908035906020019064010000000081111561013a57600080fd5b82018360208201111561014c57600080fd5b8035906020019184600183028401116401000000008311171561016e57600080fd5b91908080601f016020809104026020016040519081016040528093929190818152602001838380828437600081840152601f19601f8201169050808301925050505050505091929192905050506104d0565b005b6101ca610875565b6040518082815260200191505060405180910390f35b610299600480360360208110156101f657600080fd5b810190808035906020019064010000000081111561021357600080fd5b82018360208201111561022557600080fd5b8035906020019184600183028401116401000000008311171561024757600080fd5b91908080601f016020809104026020016040519081016040528093929190818152602001838380828437600081840152601f19601f82011690508083019250505050505050919291929050505061087b565b60405180851515815260200184815260200183815260200180602001828103825283818151815260200191508051906020019080838360005b838110156102ed5780820151818401526020810190506102d2565b50505050905090810190601f16801561031a5780820380516001836020036101000a031916815260200191505b509550505050505060405180910390f35b61036d6004803603602081101561034157600080fd5b81019080803573ffffffffffffffffffffffffffffffffffffffff169060200190929190505050610aed565b60405180821515815260200191505060405180910390f35b61043e6004803603602081101561039b57600080fd5b81019080803590602001906401000000008111156103b857600080fd5b8201836020820111156103ca57600080fd5b803590602001918460018302840111640100000000831117156103ec57600080fd5b91908080601f016020809104026020016040519081016040528093929190818152602001838380828437600081840152601f19601f820116905080830192505050505050509192919290505050610b0d565b60405180851515815260200184815260200183815260200180602001828103825283818151815260200191508051906020019080838360005b83811015610492578082015181840152602081019050610477565b50505050905090810190601f1680156104bf5780820380516001836020036101000a031916815260200191505b509550505050505060405180910390f35b6000803373ffffffffffffffffffffffffffffffffffffffff1673ffffffffffffffffffffffffffffffffffffffff16815260200190815260200160002060009054906101000a900460ff1661058e576040517f08c379a00000000000000000000000000000000000000000000000000000000081526004018080602001828103825260098152602001807f4e6f742041646d696e000000000000000000000000000000000000000000000081525060200191505060405180910390fd5b600015156002836040518082805190602001908083835b602083106105c857805182526020820191506020810190506020830392506105a5565b6001836020036101000a038019825116818451168082178552505050505050905001915050908152602001604051809103902060000160009054906101000a900460ff16151514610681576040517f08c379a000000000000000000000000000000000000000000000000000000000815260040180806020018281038252601c8152602001807f436572746966696361746520686173206265656e207265766f6b65640000000081525060200191505060405180910390fd5b6040518060800160405280600115158152602001858152602001848152602001828152506002836040518082805190602001908083835b602083106106db57805182526020820191506020810190506020830392506106b8565b6001836020036101000a038019825116818451168082178552505050505050905001915050908152602001604051809103902060008201518160000160006101000a81548160ff0219169083151502179055506020820151816001015560408201518160020155606082015181600301908051906020019061075e929190610bf8565b50905050816040518082805190602001908083835b602083106107965780518252602082019150602081019050602083039250610773565b6001836020036101000a03801982511681845116808217855250505050505090500191505060405180910390207fa890cfc9da75f53c96061d5adda9f59be187b2580f85029078143b53ec9bac938585846040518084815260200183815260200180602001828103825283818151815260200191508051906020019080838360005b83811015610833578082015181840152602081019050610818565b50505050905090810190601f1680156108605780820380516001836020036101000a031916815260200191505b5094505050505060405180910390a250505050565b60015481565b600080600060606002856040518082805190602001908083835b602083106108b85780518252602082019150602081019050602083039250610895565b6001836020036101000a038019825116818451168082178552505050505050905001915050908152602001604051809103902060000160009054906101000a900460ff166002866040518082805190602001908083835b60208310610932578051825260208201915060208101905060208303925061090f565b6001836020036101000a0380198251168184511680821785525050505050509050019150509081526020016040518091039020600101546002876040518082805190602001908083835b6020831061099f578051825260208201915060208101905060208303925061097c565b6001836020036101000a0380198251168184511680821785525050505050509050019150509081526020016040518091039020600201546002886040518082805190602001908083835b60208310610a0c57805182526020820191506020810190506020830392506109e9565b6001836020036101000a0380198251168184511680821785525050505050509050019150509081526020016040518091039020600301808054600181600116156101000203166002900480601f016020809104026020016040519081016040528092919081815260200182805460018160011615610100020316600290048015610ad75780601f10610aac57610100808354040283529160200191610ad7565b820191906000526020600020905b815481529060010190602001808311610aba57829003601f168201915b5050505050905093509350935093509193509193565b60006020528060005260406000206000915054906101000a900460ff1681565b6002818051602081018201805184825260208301602085012081835280955050505050506000915090508060000160009054906101000a900460ff1690806001015490806002015490806003018054600181600116156101000203166002900480601f016020809104026020016040519081016040528092919081815260200182805460018160011615610100020316600290048015610bee5780601f10610bc357610100808354040283529160200191610bee565b820191906000526020600020905b815481529060010190602001808311610bd157829003601f168201915b5050505050905084565b828054600181600116156101000203166002900490600052602060002090601f016020900481019282610c2e5760008555610c75565b82601f10610c4757805160ff1916838001178555610c75565b82800160010185558215610c75579182015b82811115610c74578251825591602001919060010190610c59565b5b509050610c829190610c86565b5090565b5b80821115610c9f576000816000905550600101610c87565b509056fea264697066735822122054c2eaa42a4f49bfa04f8dc6114ae1c6b410cc3ca6e83f158e367b20b0108a4c64736f6c63430007060033",
  "immutableReferences": {},
  "source": "// SPDX-License-Identifier: UNLICENSED\npragma solidity ^0.7.0;\n\ncontract RevokedCert {\n  mapping(address=>bool) public admins;\n  uint public adminCount;\n\n  struct RevokedInfo {\n    bool isAcitve;\n    uint revokedTime;\n    bytes32 certType;\n    string issuer;\n  }\n\n  mapping(string=>RevokedInfo) public revokedCerts;\n\n  event RevokeCert(string indexed certNo, uint revokedTime, bytes32 certType, string issuer);\n\n  constructor() public {\n    admins[msg.sender] = true;\n    adminCount = 1;\n  }\n\n  modifier onlyAdmin() {\n    require(admins[msg.sender], \"Not Admin\");\n    _;\n  }\n\n  /// @notice 获取撤销证书信息\n  /// @dev 同一证书只能撤销一次\n  /// @param revokedTime 撤销时间，时间戳形式\n  /// @param certType 证书类型\n  /// @param certNo 证书唯一标识\n  /// @param issuer 发行者did\n  function revoke(\n    uint revokedTime,\n    bytes32 certType,\n    string memory certNo,\n    string memory issuer\n  ) public onlyAdmin {\n    require(revokedCerts[certNo].isAcitve == false, \"Certificate has been revoked\");\n\n    revokedCerts[certNo] = RevokedInfo(true, revokedTime, certType, issuer);\n    emit RevokeCert(certNo, revokedTime, certType, issuer);\n  }\n\n  /**\n  * @notice 获取撤销证书信息\n  * @param certNo 证书唯一标识\n  * @return RevokedInfo 该数组有以下元素：\n              - isAcitve：撤销是否有效；\n              - revokedTime 撤销时间；\n              - certType：证书类型；\n              - issuer：发行者did；\n  */\n  function getRevokedInfo(string memory certNo) view public returns (bool, uint, bytes32, string memory) {\n    return(\n      revokedCerts[certNo].isAcitve,\n      revokedCerts[certNo].revokedTime,\n      revokedCerts[certNo].certType,\n      revokedCerts[certNo].issuer\n    );\n  }\n}",
  "sourcePath": "/Users/liyi/project/ott/evidence-contract/contracts/RevokedCert.sol",
  "compiler": {
    "name": "solc",
    "version": "0.7.6+commit.7338295f.Emscripten.clang"
  },
  "schemaVersion": "3.4.6",
  "updatedAt": "2022-05-05T12:23:35.247Z",
  "networkType": "quorum",
  "devdoc": {
    "kind": "dev",
    "methods": {
      "getRevokedInfo(string)": {
        "params": {
          "certNo": "证书唯一标识"
        },
        "returns": {
          "_0": "RevokedInfo 该数组有以下元素： - isAcitve：撤销是否有效； - revokedTime 撤销时间； - certType：证书类型； - issuer：发行者did；"
        }
      },
      "revoke(uint256,bytes32,string,string)": {
        "details": "同一证书只能撤销一次",
        "params": {
          "certNo": "证书唯一标识",
          "certType": "证书类型",
          "issuer": "发行者did",
          "revokedTime": "撤销时间，时间戳形式"
        }
      }
    },
    "version": 1
  },
  "userdoc": {
    "kind": "user",
    "methods": {
      "getRevokedInfo(string)": {
        "notice": "获取撤销证书信息"
      },
      "revoke(uint256,bytes32,string,string)": {
        "notice": "获取撤销证书信息"
      }
    },
    "version": 1
  }
}