{
  "contractName": "RevokedCert",
  "abi": [
    {
      "inputs": [],
      "stateMutability": "nonpayable",
      "type": "constructor"
    },
    {
      "anonymous": false,
      "inputs": [
        {
          "indexed": true,
          "internalType": "string",
          "name": "certNo",
          "type": "string"
        },
        {
          "indexed": false,
          "internalType": "uint256",
          "name": "revokedTime",
          "type": "uint256"
        },
        {
          "indexed": false,
          "internalType": "bytes32",
          "name": "certType",
          "type": "bytes32"
        },
        {
          "indexed": false,
          "internalType": "string",
          "name": "holder",
          "type": "string"
        },
        {
          "indexed": false,
          "internalType": "string",
          "name": "issuer",
          "type": "string"
        }
      ],
      "name": "RevokeCert",
      "type": "event"
    },
    {
      "inputs": [],
      "name": "adminCount",
      "outputs": [
        {
          "internalType": "uint256",
          "name": "",
          "type": "uint256"
        }
      ],
      "stateMutability": "view",
      "type": "function",
      "constant": true
    },
    {
      "inputs": [
        {
          "internalType": "address",
          "name": "",
          "type": "address"
        }
      ],
      "name": "admins",
      "outputs": [
        {
          "internalType": "bool",
          "name": "",
          "type": "bool"
        }
      ],
      "stateMutability": "view",
      "type": "function",
      "constant": true
    },
    {
      "inputs": [
        {
          "internalType": "string",
          "name": "",
          "type": "string"
        }
      ],
      "name": "revokedCerts",
      "outputs": [
        {
          "internalType": "bool",
          "name": "isAcitve",
          "type": "bool"
        },
        {
          "internalType": "uint256",
          "name": "revokedTime",
          "type": "uint256"
        },
        {
          "internalType": "bytes32",
          "name": "certType",
          "type": "bytes32"
        },
        {
          "internalType": "string",
          "name": "holder",
          "type": "string"
        },
        {
          "internalType": "string",
          "name": "issuer",
          "type": "string"
        }
      ],
      "stateMutability": "view",
      "type": "function",
      "constant": true
    },
    {
      "inputs": [
        {
          "internalType": "uint256",
          "name": "revokedTime",
          "type": "uint256"
        },
        {
          "internalType": "bytes32",
          "name": "certType",
          "type": "bytes32"
        },
        {
          "internalType": "string",
          "name": "certNo",
          "type": "string"
        },
        {
          "internalType": "string",
          "name": "holder",
          "type": "string"
        },
        {
          "internalType": "string",
          "name": "issuer",
          "type": "string"
        }
      ],
      "name": "revoke",
      "outputs": [],
      "stateMutability": "nonpayable",
      "type": "function"
    },
    {
      "inputs": [
        {
          "internalType": "string",
          "name": "certNo",
          "type": "string"
        }
      ],
      "name": "getRevokedInfo",
      "outputs": [
        {
          "components": [
            {
              "internalType": "bool",
              "name": "isAcitve",
              "type": "bool"
            },
            {
              "internalType": "uint256",
              "name": "revokedTime",
              "type": "uint256"
            },
            {
              "internalType": "bytes32",
              "name": "certType",
              "type": "bytes32"
            },
            {
              "internalType": "string",
              "name": "holder",
              "type": "string"
            },
            {
              "internalType": "string",
              "name": "issuer",
              "type": "string"
            }
          ],
          "internalType": "struct RevokedCert.RevokedInfo",
          "name": "",
          "type": "tuple"
        }
      ],
      "stateMutability": "view",
      "type": "function",
      "constant": true
    }
  ],
  "bytecode": "0x608060405234801561001057600080fd5b5060016000803373ffffffffffffffffffffffffffffffffffffffff1673ffffffffffffffffffffffffffffffffffffffff16815260200190815260200160002060006101000a81548160ff02191690831515021790555060018081905550610e5e8061007e6000396000f3fe608060405234801561001057600080fd5b50600436106100575760003560e01c80632b7832b31461005c57806338b6b2f71461007a578063429b62e5146100aa57806374662c4a146100da578063e9ee291b1461010e575b600080fd5b61006461012a565b6040516100719190610c35565b60405180910390f35b610094600480360381019061008f9190610846565b610130565b6040516100a19190610c13565b60405180910390f35b6100c460048036038101906100bf919061081d565b6102db565b6040516100d19190610b57565b60405180910390f35b6100f460048036038101906100ef9190610846565b6102fb565b604051610105959493929190610b72565b60405180910390f35b61012860048036038101906101239190610887565b610484565b005b60015481565b610138610697565b6002826040516101489190610b40565b90815260200160405180910390206040518060a00160405290816000820160009054906101000a900460ff161515151581526020016001820154815260200160028201548152602001600382018054600181600116156101000203166002900480601f0160208091040260200160405190810160405280929190818152602001828054600181600116156101000203166002900480156102295780601f106101fe57610100808354040283529160200191610229565b820191906000526020600020905b81548152906001019060200180831161020c57829003601f168201915b50505050508152602001600482018054600181600116156101000203166002900480601f0160208091040260200160405190810160405280929190818152602001828054600181600116156101000203166002900480156102cb5780601f106102a0576101008083540402835291602001916102cb565b820191906000526020600020905b8154815290600101906020018083116102ae57829003601f168201915b5050505050815250509050919050565b60006020528060005260406000206000915054906101000a900460ff1681565b6002818051602081018201805184825260208301602085012081835280955050505050506000915090508060000160009054906101000a900460ff1690806001015490806002015490806003018054600181600116156101000203166002900480601f0160208091040260200160405190810160405280929190818152602001828054600181600116156101000203166002900480156103dc5780601f106103b1576101008083540402835291602001916103dc565b820191906000526020600020905b8154815290600101906020018083116103bf57829003601f168201915b505050505090806004018054600181600116156101000203166002900480601f01602080910402602001604051908101604052809291908181526020018280546001816001161561010002031660029004801561047a5780601f1061044f5761010080835404028352916020019161047a565b820191906000526020600020905b81548152906001019060200180831161045d57829003601f168201915b5050505050905085565b6000803373ffffffffffffffffffffffffffffffffffffffff1673ffffffffffffffffffffffffffffffffffffffff16815260200190815260200160002060009054906101000a900460ff1661050f576040517f08c379a000000000000000000000000000000000000000000000000000000000815260040161050690610bd3565b60405180910390fd5b600015156002846040516105239190610b40565b908152602001604051809103902060000160009054906101000a900460ff16151514610584576040517f08c379a000000000000000000000000000000000000000000000000000000000815260040161057b90610bf3565b60405180910390fd5b6040518060a00160405280600115158152602001868152602001858152602001838152602001828152506002846040516105be9190610b40565b908152602001604051809103902060008201518160000160006101000a81548160ff0219169083151502179055506020820151816001015560408201518160020155606082015181600301908051906020019061061c9291906106cb565b5060808201518160040190805190602001906106399291906106cb565b509050508260405161064b9190610b40565b60405180910390207f6828af8a825c8ea229f434dfef1e3d7e5139c8df457b67671ab3c84e9fb6d7ad868685856040516106889493929190610c50565b60405180910390a25050505050565b6040518060a00160405280600015158152602001600081526020016000801916815260200160608152602001606081525090565b828054600181600116156101000203166002900490600052602060002090601f0160209004810192826107015760008555610748565b82601f1061071a57805160ff1916838001178555610748565b82800160010185558215610748579182015b8281111561074757825182559160200191906001019061072c565b5b5090506107559190610759565b5090565b5b8082111561077257600081600090555060010161075a565b5090565b600061078961078484610cd4565b610ca3565b9050828152602081018484840111156107a157600080fd5b6107ac848285610d8e565b509392505050565b6000813590506107c381610de3565b92915050565b6000813590506107d881610dfa565b92915050565b600082601f8301126107ef57600080fd5b81356107ff848260208601610776565b91505092915050565b60008135905061081781610e11565b92915050565b60006020828403121561082f57600080fd5b600061083d848285016107b4565b91505092915050565b60006020828403121561085857600080fd5b600082013567ffffffffffffffff81111561087257600080fd5b61087e848285016107de565b91505092915050565b600080600080600060a0868803121561089f57600080fd5b60006108ad88828901610808565b95505060206108be888289016107c9565b945050604086013567ffffffffffffffff8111156108db57600080fd5b6108e7888289016107de565b935050606086013567ffffffffffffffff81111561090457600080fd5b610910888289016107de565b925050608086013567ffffffffffffffff81111561092d57600080fd5b610939888289016107de565b9150509295509295909350565b61094f81610d4e565b82525050565b61095e81610d4e565b82525050565b61096d81610d5a565b82525050565b61097c81610d5a565b82525050565b600061098d82610d04565b6109978185610d0f565b93506109a7818560208601610d9d565b6109b081610dd2565b840191505092915050565b60006109c682610d04565b6109d08185610d20565b93506109e0818560208601610d9d565b6109e981610dd2565b840191505092915050565b60006109ff82610d04565b610a098185610d31565b9350610a19818560208601610d9d565b80840191505092915050565b6000610a32600983610d20565b91507f4e6f742041646d696e00000000000000000000000000000000000000000000006000830152602082019050919050565b6000610a72601c83610d20565b91507f436572746966696361746520686173206265656e207265766f6b6564000000006000830152602082019050919050565b600060a083016000830151610abd6000860182610946565b506020830151610ad06020860182610b22565b506040830151610ae36040860182610964565b5060608301518482036060860152610afb8282610982565b91505060808301518482036080860152610b158282610982565b9150508091505092915050565b610b2b81610d84565b82525050565b610b3a81610d84565b82525050565b6000610b4c82846109f4565b915081905092915050565b6000602082019050610b6c6000830184610955565b92915050565b600060a082019050610b876000830188610955565b610b946020830187610b31565b610ba16040830186610973565b8181036060830152610bb381856109bb565b90508181036080830152610bc781846109bb565b90509695505050505050565b60006020820190508181036000830152610bec81610a25565b9050919050565b60006020820190508181036000830152610c0c81610a65565b9050919050565b60006020820190508181036000830152610c2d8184610aa5565b905092915050565b6000602082019050610c4a6000830184610b31565b92915050565b6000608082019050610c656000830187610b31565b610c726020830186610973565b8181036040830152610c8481856109bb565b90508181036060830152610c9881846109bb565b905095945050505050565b6000604051905081810181811067ffffffffffffffff82111715610cca57610cc9610dd0565b5b8060405250919050565b600067ffffffffffffffff821115610cef57610cee610dd0565b5b601f19601f8301169050602081019050919050565b600081519050919050565b600082825260208201905092915050565b600082825260208201905092915050565b600081905092915050565b6000610d4782610d64565b9050919050565b60008115159050919050565b6000819050919050565b600073ffffffffffffffffffffffffffffffffffffffff82169050919050565b6000819050919050565b82818337600083830152505050565b60005b83811015610dbb578082015181840152602081019050610da0565b83811115610dca576000848401525b50505050565bfe5b6000601f19601f8301169050919050565b610dec81610d3c565b8114610df757600080fd5b50565b610e0381610d5a565b8114610e0e57600080fd5b50565b610e1a81610d84565b8114610e2557600080fd5b5056fea26469706673582212200cdbc4b780dcf0f84b4dfb24e71e2a83139072d380f78652fe574f4cdb553dad64736f6c63430007060033",
  "immutableReferences": {},
  "source": "// SPDX-License-Identifier: UNLICENSED\npragma solidity ^0.7.0;\npragma abicoder v2;\n\ncontract RevokedCert {\n  mapping(address=>bool) public admins;\n  uint public adminCount;\n\n  struct RevokedInfo {\n    bool isAcitve;\n    uint revokedTime;\n    bytes32 certType;\n    string holder;\n    string issuer;\n  }\n\n  mapping(string=>RevokedInfo) public revokedCerts;\n\n  event RevokeCert(string indexed certNo, uint revokedTime, bytes32 certType, string holder, string issuer);\n\n  constructor() public {\n    admins[msg.sender] = true;\n    adminCount = 1;\n  }\n\n  modifier onlyAdmin() {\n    require(admins[msg.sender], \"Not Admin\");\n    _;\n  }\n\n  function revoke(\n    uint revokedTime,\n    bytes32 certType,\n    string memory certNo,\n    string memory holder,\n    string memory issuer\n  ) public onlyAdmin {\n    require(revokedCerts[certNo].isAcitve == false, \"Certificate has been revoked\");\n\n    revokedCerts[certNo] = RevokedInfo(true, revokedTime, certType, holder, issuer);\n    emit RevokeCert(certNo, revokedTime, certType, holder, issuer);\n  }\n\n  function getRevokedInfo(string memory certNo) view public returns (RevokedInfo memory) {\n    return(revokedCerts[certNo]);\n  }\n}",
  "sourcePath": "/Users/liyi/project/solidity/evidence-contract/contracts/RevokedCert.sol",
  "compiler": {
    "name": "solc",
    "version": "0.7.6+commit.7338295f.Emscripten.clang"
  },
  "schemaVersion": "3.4.6",
  "updatedAt": "2022-04-20T09:29:07.720Z",
  "networkType": "quorum",
  "devdoc": {
    "kind": "dev",
    "methods": {},
    "version": 1
  },
  "userdoc": {
    "kind": "user",
    "methods": {},
    "version": 1
  }
}