{
  "contractName": "RevokedCert",
  "abi": [
    {
      "inputs": [],
      "stateMutability": "nonpayable",
      "type": "constructor"
    },
    {
      "anonymous": false,
      "inputs": [
        {
          "indexed": true,
          "internalType": "string",
          "name": "certNo",
          "type": "string"
        },
        {
          "indexed": false,
          "internalType": "uint256",
          "name": "revokedTime",
          "type": "uint256"
        },
        {
          "indexed": false,
          "internalType": "bytes32",
          "name": "certType",
          "type": "bytes32"
        },
        {
          "indexed": false,
          "internalType": "string",
          "name": "issuer",
          "type": "string"
        }
      ],
      "name": "RevokeCert",
      "type": "event"
    },
    {
      "inputs": [],
      "name": "adminCount",
      "outputs": [
        {
          "internalType": "uint256",
          "name": "",
          "type": "uint256"
        }
      ],
      "stateMutability": "view",
      "type": "function",
      "constant": true
    },
    {
      "inputs": [
        {
          "internalType": "address",
          "name": "",
          "type": "address"
        }
      ],
      "name": "admins",
      "outputs": [
        {
          "internalType": "bool",
          "name": "",
          "type": "bool"
        }
      ],
      "stateMutability": "view",
      "type": "function",
      "constant": true
    },
    {
      "inputs": [
        {
          "internalType": "string",
          "name": "",
          "type": "string"
        }
      ],
      "name": "revokedCerts",
      "outputs": [
        {
          "internalType": "bool",
          "name": "isAcitve",
          "type": "bool"
        },
        {
          "internalType": "uint256",
          "name": "revokedTime",
          "type": "uint256"
        },
        {
          "internalType": "bytes32",
          "name": "certType",
          "type": "bytes32"
        },
        {
          "internalType": "string",
          "name": "issuer",
          "type": "string"
        }
      ],
      "stateMutability": "view",
      "type": "function",
      "constant": true
    },
    {
      "inputs": [
        {
          "internalType": "uint256",
          "name": "revokedTime",
          "type": "uint256"
        },
        {
          "internalType": "bytes32",
          "name": "certType",
          "type": "bytes32"
        },
        {
          "internalType": "string",
          "name": "certNo",
          "type": "string"
        },
        {
          "internalType": "string",
          "name": "issuer",
          "type": "string"
        }
      ],
      "name": "revoke",
      "outputs": [],
      "stateMutability": "nonpayable",
      "type": "function"
    },
    {
      "inputs": [
        {
          "internalType": "string",
          "name": "certNo",
          "type": "string"
        }
      ],
      "name": "getRevokedInfo",
      "outputs": [
        {
          "components": [
            {
              "internalType": "bool",
              "name": "isAcitve",
              "type": "bool"
            },
            {
              "internalType": "uint256",
              "name": "revokedTime",
              "type": "uint256"
            },
            {
              "internalType": "bytes32",
              "name": "certType",
              "type": "bytes32"
            },
            {
              "internalType": "string",
              "name": "issuer",
              "type": "string"
            }
          ],
          "internalType": "struct RevokedCert.RevokedInfo",
          "name": "",
          "type": "tuple"
        }
      ],
      "stateMutability": "view",
      "type": "function",
      "constant": true
    }
  ],
  "bytecode": "0x608060405234801561001057600080fd5b5060016000803373ffffffffffffffffffffffffffffffffffffffff1673ffffffffffffffffffffffffffffffffffffffff16815260200190815260200160002060006101000a81548160ff02191690831515021790555060018081905550610c808061007e6000396000f3fe608060405234801561001057600080fd5b50600436106100575760003560e01c80630bfa0e861461005c5780632b7832b31461007857806338b6b2f714610096578063429b62e5146100c657806374662c4a146100f6575b600080fd5b61007660048036038101906100719190610719565b610129565b005b610080610316565b60405161008d9190610a6c565b60405180910390f35b6100b060048036038101906100ab91906106d8565b61031c565b6040516100bd9190610a4a565b60405180910390f35b6100e060048036038101906100db91906106af565b610425565b6040516100ed91906109a3565b60405180910390f35b610110600480360381019061010b91906106d8565b610445565b60405161012094939291906109be565b60405180910390f35b6000803373ffffffffffffffffffffffffffffffffffffffff1673ffffffffffffffffffffffffffffffffffffffff16815260200190815260200160002060009054906101000a900460ff166101b4576040517f08c379a00000000000000000000000000000000000000000000000000000000081526004016101ab90610a0a565b60405180910390fd5b600015156002836040516101c8919061098c565b908152602001604051809103902060000160009054906101000a900460ff16151514610229576040517f08c379a000000000000000000000000000000000000000000000000000000000815260040161022090610a2a565b60405180910390fd5b60405180608001604052806001151581526020018581526020018481526020018281525060028360405161025d919061098c565b908152602001604051809103902060008201518160000160006101000a81548160ff021916908315150217905550602082015181600101556040820151816002015560608201518160030190805190602001906102bb929190610530565b50905050816040516102cd919061098c565b60405180910390207fa890cfc9da75f53c96061d5adda9f59be187b2580f85029078143b53ec9bac9385858460405161030893929190610a87565b60405180910390a250505050565b60015481565b6103246105be565b600282604051610334919061098c565b90815260200160405180910390206040518060800160405290816000820160009054906101000a900460ff161515151581526020016001820154815260200160028201548152602001600382018054600181600116156101000203166002900480601f0160208091040260200160405190810160405280929190818152602001828054600181600116156101000203166002900480156104155780601f106103ea57610100808354040283529160200191610415565b820191906000526020600020905b8154815290600101906020018083116103f857829003601f168201915b5050505050815250509050919050565b60006020528060005260406000206000915054906101000a900460ff1681565b6002818051602081018201805184825260208301602085012081835280955050505050506000915090508060000160009054906101000a900460ff1690806001015490806002015490806003018054600181600116156101000203166002900480601f0160208091040260200160405190810160405280929190818152602001828054600181600116156101000203166002900480156105265780601f106104fb57610100808354040283529160200191610526565b820191906000526020600020905b81548152906001019060200180831161050957829003601f168201915b5050505050905084565b828054600181600116156101000203166002900490600052602060002090601f01602090048101928261056657600085556105ad565b82601f1061057f57805160ff19168380011785556105ad565b828001600101855582156105ad579182015b828111156105ac578251825591602001919060010190610591565b5b5090506105ba91906105eb565b5090565b60405180608001604052806000151581526020016000815260200160008019168152602001606081525090565b5b808211156106045760008160009055506001016105ec565b5090565b600061061b61061684610af6565b610ac5565b90508281526020810184848401111561063357600080fd5b61063e848285610bb0565b509392505050565b60008135905061065581610c05565b92915050565b60008135905061066a81610c1c565b92915050565b600082601f83011261068157600080fd5b8135610691848260208601610608565b91505092915050565b6000813590506106a981610c33565b92915050565b6000602082840312156106c157600080fd5b60006106cf84828501610646565b91505092915050565b6000602082840312156106ea57600080fd5b600082013567ffffffffffffffff81111561070457600080fd5b61071084828501610670565b91505092915050565b6000806000806080858703121561072f57600080fd5b600061073d8782880161069a565b945050602061074e8782880161065b565b935050604085013567ffffffffffffffff81111561076b57600080fd5b61077787828801610670565b925050606085013567ffffffffffffffff81111561079457600080fd5b6107a087828801610670565b91505092959194509250565b6107b581610b70565b82525050565b6107c481610b70565b82525050565b6107d381610b7c565b82525050565b6107e281610b7c565b82525050565b60006107f382610b26565b6107fd8185610b31565b935061080d818560208601610bbf565b61081681610bf4565b840191505092915050565b600061082c82610b26565b6108368185610b42565b9350610846818560208601610bbf565b61084f81610bf4565b840191505092915050565b600061086582610b26565b61086f8185610b53565b935061087f818560208601610bbf565b80840191505092915050565b6000610898600983610b42565b91507f4e6f742041646d696e00000000000000000000000000000000000000000000006000830152602082019050919050565b60006108d8601c83610b42565b91507f436572746966696361746520686173206265656e207265766f6b6564000000006000830152602082019050919050565b600060808301600083015161092360008601826107ac565b506020830151610936602086018261096e565b50604083015161094960408601826107ca565b506060830151848203606086015261096182826107e8565b9150508091505092915050565b61097781610ba6565b82525050565b61098681610ba6565b82525050565b6000610998828461085a565b915081905092915050565b60006020820190506109b860008301846107bb565b92915050565b60006080820190506109d360008301876107bb565b6109e0602083018661097d565b6109ed60408301856107d9565b81810360608301526109ff8184610821565b905095945050505050565b60006020820190508181036000830152610a238161088b565b9050919050565b60006020820190508181036000830152610a43816108cb565b9050919050565b60006020820190508181036000830152610a64818461090b565b905092915050565b6000602082019050610a81600083018461097d565b92915050565b6000606082019050610a9c600083018661097d565b610aa960208301856107d9565b8181036040830152610abb8184610821565b9050949350505050565b6000604051905081810181811067ffffffffffffffff82111715610aec57610aeb610bf2565b5b8060405250919050565b600067ffffffffffffffff821115610b1157610b10610bf2565b5b601f19601f8301169050602081019050919050565b600081519050919050565b600082825260208201905092915050565b600082825260208201905092915050565b600081905092915050565b6000610b6982610b86565b9050919050565b60008115159050919050565b6000819050919050565b600073ffffffffffffffffffffffffffffffffffffffff82169050919050565b6000819050919050565b82818337600083830152505050565b60005b83811015610bdd578082015181840152602081019050610bc2565b83811115610bec576000848401525b50505050565bfe5b6000601f19601f8301169050919050565b610c0e81610b5e565b8114610c1957600080fd5b50565b610c2581610b7c565b8114610c3057600080fd5b50565b610c3c81610ba6565b8114610c4757600080fd5b5056fea2646970667358221220c4b0b0684d440df3545a98198a340007d487b5cd3c224fc3a35e92d60374992064736f6c63430007060033",
  "immutableReferences": {},
  "source": "// SPDX-License-Identifier: UNLICENSED\npragma solidity ^0.7.0;\npragma abicoder v2;\n\ncontract RevokedCert {\n  mapping(address=>bool) public admins;\n  uint public adminCount;\n\n  struct RevokedInfo {\n    bool isAcitve;\n    uint revokedTime;\n    bytes32 certType;\n    string issuer;\n  }\n\n  mapping(string=>RevokedInfo) public revokedCerts;\n\n  event RevokeCert(string indexed certNo, uint revokedTime, bytes32 certType, string issuer);\n\n  constructor() public {\n    admins[msg.sender] = true;\n    adminCount = 1;\n  }\n\n  modifier onlyAdmin() {\n    require(admins[msg.sender], \"Not Admin\");\n    _;\n  }\n\n  /// @notice \n  /// @dev \n  /// @param revokedTime \n  /// @param certType \n  /// @param certNo \n  /// @param issuer did\n  function revoke(\n    uint revokedTime,\n    bytes32 certType,\n    string memory certNo,\n    string memory issuer\n  ) public onlyAdmin {\n    require(revokedCerts[certNo].isAcitve == false, \"Certificate has been revoked\");\n\n    revokedCerts[certNo] = RevokedInfo(true, revokedTime, certType, issuer);\n    emit RevokeCert(certNo, revokedTime, certType, issuer);\n  }\n\n  /**\n  * @notice \n  * @param certNo \n  * @return RevokedInfo \n              - isAcitve\n              - revokedTime \n              - certType\n              - issuerdid\n  */\n  function getRevokedInfo(string memory certNo) view public returns (RevokedInfo memory) {\n    return(revokedCerts[certNo]);\n  }\n}",
  "sourcePath": "/Users/liyi/project/solidity/evidence-contract/contracts/RevokedCert.sol",
  "compiler": {
    "name": "solc",
    "version": "0.7.6+commit.7338295f.Emscripten.clang"
  },
  "schemaVersion": "3.4.6",
  "updatedAt": "2022-04-20T10:16:27.937Z",
  "networkType": "quorum",
  "devdoc": {
    "kind": "dev",
    "methods": {
      "getRevokedInfo(string)": {
        "params": {
          "certNo": ""
        },
        "returns": {
          "_0": "RevokedInfo  - isAcitve - revokedTime  - certType - issuerdid"
        }
      },
      "revoke(uint256,bytes32,string,string)": {
        "details": "",
        "params": {
          "certNo": "",
          "certType": "",
          "issuer": "did",
          "revokedTime": ""
        }
      }
    },
    "version": 1
  },
  "userdoc": {
    "kind": "user",
    "methods": {
      "getRevokedInfo(string)": {
        "notice": ""
      },
      "revoke(uint256,bytes32,string,string)": {
        "notice": ""
      }
    },
    "version": 1
  }
}